:0400000053EF00F0CA
:0E0008002182FACF12F0FBCF13F055EF00F07B
:100018002180D8CF01F0E8CF02F0E0CF03F0FACF8B
:1000280004F0FBCF05F0E9CF06F0EACF07F0E1CF07
:1000380008F0E2CF09F0D9CF0AF0DACF0BF0F3CF0E
:100048000CF0F4CF0DF0F6CF0EF0F7CF0FF0F8CF9D
:1000580010F0F5CF11F011C0F5FF10C0F8FF0FC078
:10006800F7FF0EC0F6FF0DC0F4FF0CC0F3FF0BC086
:10007800DAFF0AC0D9FF09C0E2FF08C0E1FF07C0E4
:10008800EAFF06C0E9FF05C0FBFF04C0FAFF03C092
:10009800E0FF02C0E8FF01C0D8FF21901000C7EFC1
:1000A80000F0E9CF14F0EACF15F0E1CF16F0E2CF77
:1000B80017F0D9CF18F0DACF19F0F3CF1AF0F4CF40
:1000C8001BF0F6CF1CF0F7CF1DF0F8CF1EF0F5CFE0
:1000D8001FF01FC0F5FF1EC0F8FF1DC0F7FF1CC0B2
:1000E800F6FF1BC0F4FF1AC0F3FF19C0DAFF18C0EF
:1000F800D9FF17C0E2FF16C0E1FF15C0EAFF14C020
:10010800E9FF13C0FBFF12C0FAFF21921100DF0EB6
:10011800926EF19E7C809368DF0E946E000E956E51
:10012800000E806E000E826E000E836E000E7E6ED4
:10013800000E7F6EC79EC78C000EC66EC68AC6802C
:10014800C684F29EF294010ED56E000ED76E000E94
:10015800D66ED58E1200CCEC00F08BEC00F0FF0EC2
:10016800BFEC00F0836EF2A4FED7F294200ED76E97
:10017800000ED66EF4D7206E20C0C9FF9EA6FED70B
:100188009E96C9501200219021920001AFEF00F015
:060198005C0ED36E1200A4
:020000040020DA
:08000000FFFFFFFFFFFFFFFF00
:020000040030CA
:0E000000FF08011EFF8981FF0FC00FE00F40B7
:00000001FF
