:0400000053EF00F0CA
:0E0008002482FACF12F0FBCF13F08EEF00F03F
:100018002480D8CF01F0E8CF02F0E0CF03F0FACF88
:1000280004F0FBCF05F0E9CF06F0EACF07F0E1CF07
:1000380008F0E2CF09F0D9CF0AF0DACF0BF0F3CF0E
:100048000CF0F4CF0DF0F6CF0EF0F7CF0FF0F8CF9D
:1000580010F0F5CF11F011C0F5FF10C0F8FF0FC078
:10006800F7FF0EC0F6FF0DC0F4FF0CC0F3FF0BC086
:10007800DAFF0AC0D9FF09C0E2FF08C0E1FF07C0E4
:10008800EAFF06C0E9FF05C0FBFF04C0FAFF03C092
:10009800E0FF02C0E8FF01C0D8FF24901000EEEF97
:1000A80000F0F3EC00F0C4EC00F0000E226E010E3C
:1000B800236E000E216E2250D8A407D0D890233684
:1000C8002350D8A409D0010E06D0D890233223504B
:1000D800D8A402D0800E236E23C083FF2350E6EC01
:1000E80000F081A003D0000E216E0CD02150D8A4BE
:1000F80009D0010E216E2250D8A402D0010E01D0E1
:10010800000E226EF2A4EDD7F2940F0ED76E000EF9
:10011800D66ED1D7E9CF14F0EACF15F0E1CF16F0BB
:10012800E2CF17F0D9CF18F0DACF19F0F3CF1AF0E1
:10013800F4CF1BF0F6CF1CF0F7CF1DF0F8CF1EF070
:10014800F5CF1FF01FC0F5FF1EC0F8FF1DC0F7FF59
:100158001CC0F6FF1BC0F4FF1AC0F3FF19C0DAFF7A
:1001680018C0D9FF17C0E2FF16C0E1FF15C0EAFFAB
:1001780014C0E9FF13C0FBFF12C0FAFF249211005C
:10018800DF0E926EF19E7C809368D70E946E000EFF
:10019800956E000E806E000E826E000E836E000E4D
:1001A8007E6E000E7F6EC79EC78C000EC66EC68A16
:1001B800F29EF294010ED56E000ED76E000ED66E2A
:1001C800D58E1200206E20C0C9FF9EA6FED79E962F
:1001D800C950120024902492000155EF00F05C0EE3
:0401E800D36E1200C0
:020000040020DA
:08000000FFFFFFFFFFFFFFFF00
:020000040030CA
:0E000000FF08011EFF8981FF0FC00FE00F40B7
:00000001FF
